:020000040000fa
:04005c00e2030000bb
:020000040000fa
:04001000e203000007
:020000040000fa
:04025c00e2030000b9
:020000040000fa
:04021000e203000005
:020000040000fa
:04027400e2030000a1
:020000040000fa
:04033400e2030000e0
:020000040000fa
:04027000e2030000a5
:020000040000fa
:04022c00e2030000e9
:020000040000fa
:04023c00e2030000d9
:020000040000fa
:0402bc00e203000059
:020000040000fa
:0402c000e203000055
:020000040000fa
:0402c400e203000051
:020000040000fa
:04022800e2030000ed
:020000040000fa
:04027800e20300009d
:020000040000fa
:04029c00e203000079
:020000040000fa
:04026000e2030000b5
:020000040000fa
:04026400e2030000b1
:020000040000fa
:04027c00e203000099
:020000040000fa
:04028000e203000095
:020000040000fa
:04028400e203000091
:020000040000fa
:04028800e20300008d
:020000040000fa
:0402b000e203000065
:020000040000fa
:0402b400e203000061
:020000040000fa
:0402b800e20300005d
:020000040000fa
:04023800e2030000dd
:020000040000fa
:0402c800e20300004d
:020000040000fa
:0402d000e203000045
:020000040000fa
:0402d400e203000041
:020000040000fa
:0402d800e20300003d
:020000040000fa
:0402e000e203000035
:020000040000fa
:0402e400e203000031
:020000040000fa
:0402e800e20300002d
:020000040000fa
:0402f400e203000021
:020000040000fa
:0402f800e20300001d
:020000040000fa
:0402fc00e203000019
:020000040000fa
:04030000e203000014
:020000040000fa
:04030400e203000010
:020000040000fa
:04030800e20300000c
:020000040000fa
:04030c00e203000008
:020000040000fa
:04031000e203000004
:020000040000fa
:04031400e203000000
:020000040000fa
:04031800e2030000fc
:020000040000fa
:04031c00e2030000f8
:020000040000fa
:04032400e2030000f0
:020000040000fa
:04032800e2030000ec
:020000040000fa
:04033800e2030000dc
:020000040000fa
:04033c00e2030000d8
:020000040000fa
:04034000e2030000d4
:020000040000fa
:04034400e2030000d0
:020000040000fa
:04034800e2030000cc
:020000040000fa
:04026c00e2030000a9
:020000040000fa
:0402f000bc0300004b
:020000040000fa
:04021800e2030000fd
:020000040000fa
:04023000e2030000e5
:020000040000fa
:04024000e2030000d5
:020000040000fa
:04028c00e203000089
:020000040000fa
:04029000e203000085
:020000040000fa
:0402cc00e203000049
:020000040000fa
:04020c00e203000009
:020000040000fa
:0402dc00e203000039
:020000040000fa
:04032000e2030000f4
:020000040000fa
:04020800e20300000d
:020000040000fa
:04021c00e2030000f9
:020000040000fa
:04022000e2030000f5
:020000040000fa
:04022400e2030000f1
:020000040000fa
:04026800e2030000ad
:020000040000fa
:0402ec009603000075
:020000040000fa
:04024c00e2030000c9
:020000040000fa
:04025000e2030000c5
:020000040000fa
:0402a800e20300006d
:020000040000fa
:0402ac00e203000069
:020000040000fa
:04021400e203000001
:020000040000fa
:04023400e2030000e1
:020000040000fa
:04024400e2030000d1
:020000040000fa
:04024800e2030000cd
:020000040000fa
:04029400ec02000078
:020000040000fa
:04029800e20300007d
:020000040000fa
:04032c00e2030000e8
:020000040000fa
:04025400560300004d
:020000040000fa
:04025800140300008b
:020000040000fa
:04033000e2030000e4
:020000040000fa
:0402a000e203000075
:020000040000fa
:0402a400e203000071
:020000040000fa
:04007400e2030000a3
:020000040000fa
:04013400e2030000e2
:020000040000fa
:04007000e2030000a7
:020000040000fa
:04002c00e2030000eb
:020000040000fa
:04003c00e2030000db
:020000040000fa
:0400bc00e20300005b
:020000040000fa
:0400c000e203000057
:020000040000fa
:0400c400e203000053
:020000040000fa
:04002800e2030000ef
:020000040000fa
:04007800e20300009f
:020000040000fa
:04009c00e20300007b
:020000040000fa
:04006000e2030000b7
:020000040000fa
:04006400e2030000b3
:020000040000fa
:04007c00e20300009b
:020000040000fa
:04008000e203000097
:020000040000fa
:04008400e203000093
:020000040000fa
:04008800e20300008f
:020000040000fa
:0400b000e203000067
:020000040000fa
:0400b400e203000063
:020000040000fa
:0400b800e20300005f
:020000040000fa
:04003800e2030000df
:020000040000fa
:0400c800e20300004f
:020000040000fa
:0400d000e203000047
:020000040000fa
:0400d400e203000043
:020000040000fa
:0400d800e20300003f
:020000040000fa
:0400e000e203000037
:020000040000fa
:0400e400e203000033
:020000040000fa
:0400e800e20300002f
:020000040000fa
:0400f400e203000023
:020000040000fa
:0400f800e20300001f
:020000040000fa
:0400fc00e20300001b
:020000040000fa
:04010000e203000016
:020000040000fa
:04010400e203000012
:020000040000fa
:04010800e20300000e
:020000040000fa
:04010c00e20300000a
:020000040000fa
:04011000e203000006
:020000040000fa
:04011400e203000002
:020000040000fa
:04011800e2030000fe
:020000040000fa
:04011c00e2030000fa
:020000040000fa
:04012400e2030000f2
:020000040000fa
:04012800e2030000ee
:020000040000fa
:04013800e2030000de
:020000040000fa
:04013c00e2030000da
:020000040000fa
:04014000e2030000d6
:020000040000fa
:04014400e2030000d2
:020000040000fa
:04014800e2030000ce
:020000040000fa
:04006c00e2030000ab
:020000040000fa
:04001800e2030000ff
:020000040000fa
:04003000e2030000e7
:020000040000fa
:04004000e2030000d7
:020000040000fa
:04008c00e20300008b
:020000040000fa
:04009000e203000087
:020000040000fa
:0400cc00e20300004b
:020000040000fa
:04000c00e20300000b
:020000040000fa
:0400dc00e20300003b
:020000040000fa
:04012000e2030000f6
:020000040000fa
:04000800e20300000f
:020000040000fa
:04001c00e2030000fb
:020000040000fa
:04002000e2030000f7
:020000040000fa
:04002400e2030000f3
:020000040000fa
:04006800e2030000af
:020000040000fa
:04004c00e2030000cb
:020000040000fa
:04005000e2030000c7
:020000040000fa
:0400a800e20300006f
:020000040000fa
:0400ac00e20300006b
:020000040000fa
:04001400e203000003
:020000040000fa
:04003400e2030000e3
:020000040000fa
:04004400e2030000d3
:020000040000fa
:04004800e2030000cf
:020000040000fa
:04009800e20300007f
:020000040000fa
:04012c00e2030000ea
:020000040000fa
:04013000e2030000e6
:020000040000fa
:0400a000e203000077
:020000040000fa
:0400a400e203000073
:020000040000fa
:080000000002040000000000f2
:020000040000fa
:100400000f1221000e7f22000e0188000000000064
:10041000000020000000e000020032000001200087
:100420002002880014000700e80007000000e00038
:1004300003003a00406e2500010020000200370052
:100440000000200001002000810f70000100320038
:1004500014000700000020000000e000020032004d
:100460000000020000000000e85902000000000047
:100470000040da000000fe004440a90060022000b5
:100480000000e0000300320000002000a00188000e
:100490004440a800000006008a1f78008b1f7800e7
:1004a0000000060091018800800478000000eb0045
:1004b0001a003700e284440032a0b4009905ba0063
:1004c000e284440032a0b4009906ba00e2844400f9
:1004d00032a0b4000006eb00476fde00fd07b2005b
:1004e000636ce10003003a00ebff07000000eb0043
:1004f0000a003700606ce10004003a00005deb0088
:100500008b05e900fdff3e00040037006168e10053
:10051000010032000086eb000b00070019c7ba008b
:100520001905ba000e04e00003003a000a00e000da
:10053000e0ff3a0000000600fe07b2009e018800be
:100540008a047800f5ff3700395dba008b05e900b1
:100550000c003200295dba008b05e900080032006a
:100560000c00e00003003a00e284440032a0b40032
:10057000f5ff370019ddba008b05e900faff3a00f4
:100580008904e800e184440032a0b40000000600c1
:10059000000000000000000000000000000000005b
:1005a000000000000000000000000000000000004b
:1005b000000000000000000000000000000000003b
:1005c000000000000000000000000000000000002b
:1005d00000000000000000003600f800809fbe0010
:1005e000829fbe00849fbe00869fbe003400f8003c
:1005f00000002000a00188000000fa008760a90028
:10060000b0408000000001000080fa003400f900d2
:100610004f03be004f02be004f01be004f00be00a0
:100620003600f900004006003600f800809fbe004a
:10063000829fbe00849fbe00869fbe003400f800eb
:1006400000002000a00188000000fa008580a900b9
:100650000900370011118000002020000080600098
:100660000000e00008003a0060e62000e1240700f6
:100670000000fb0020118800508380000000e00093
:10068000f4ff3a0001003700000000000080fa008b
:100690003400f9004f03be004f02be004f01be0000
:1006a0004f00be003600f900004006003600f8009a
:1006b000809fbe00829fbe00849fbe00869fbe00ba
:1006c0003400f80000002000a00188000200fa00b9
:1006d0008560a90010118000620060000000e00049
:1006e000010032002222a900101180006100600088
:1006f0000000e0000500320030118000004f78005b
:100700001e407800672a0700000000000080fa0001
:100710003400f9004f03be004f02be004f01be007f
:100720004f00be003600f900004006003600f80019
:10073000809fbe00829fbe00849fbe00869fbe0039
:100740003400f80000002000a00188000000fa003a
:100750008a20a900c92607000080fa003400f900a9
:100760004f03be004f02be004f01be004f00be004f
:100770003600f900004006003600f800809fbe00f9
:10078000829fbe00849fbe00869fbe003400f8009a
:1007900000002000a00188000000fa008a40a900a3
:1007a000d62607000080fa003400f9004f03be008f
:1007b0004f02be004f01be004f00be003600f900e0
:1007c000004006000040da000000fe0000000500c6
:1007d0000001be001b0007000470a70003f0a10089
:1007e00003f8a30013003a006509b10010003200bd
:1007f000090035006928e1000200350001002800e9
:100800000000050000004000818048008502e900ea
:10081000fcff3a0000000600f88f4200050035009a
:100820008100d1000080d3008502e800fcff3a007f
:10083000000006008000eb00000005006011b80019
:10084000c5023700c70ade00f107b200f50fb2009b
:1008500008003200e1cf4200020032000170a00027
:1008600024000500810f700001003200040805001b
:1008700044000500810f700002003a0014000500da
:100880008502e9000000400081c04800fcff3b00f9
:100890000170a000240005006022b80006022000bc
:1008a0000000d0008180d2000482d2008582d20074
:1008b0000000a0000202520083825a0003003100af
:1008c0000202420083824a000000a1000603e90000
:1008d000f3ff3a000000060007f8270007836100d5
:1008e0000638e10004003a00f70720008783610022
:1008f0008703710001003a0003f0a200889fbe0048
:100900008a9fbe008c9fbe00470ade000480a100c3
:10091000c71ade000580a1000700280007856000d7
:1009200087856100f70f20000720e1009e0032005c
:100930000728e1009c003200010678000400e00076
:10094000b4003200f7072000878060000170a0002b
:100950000500e000c0003200f70720008781610039
:100960000370a000050652000f003a000b50e10092
:100970000b0032000308e10002003a000200e1002f
:100980007e003200020450008384580004003100cd
:100990000001fd008101fd008402fd008a05fd00cb
:1009a0006044b800210037000520e10005003d004b
:1009b0000001fd008101fd008402fd008a05fd00ab
:1009c000050652007a60e100050035000170a100c3
:1009d0004722dd00848070008a8070006300370049
:1009e0006044b800ef02660007ff2f0007066600ac
:1009f0000500e00006003400f08312008714dd00db
:100a00000511de00071bdd00060171008519de00ff
:100a10007060e10005003500090478008204780068
:100a2000030178008001eb00700656000b50e100d6
:100a300003003a00020040008380480004003700b1
:100a400060041400e0841c000200580083805800f9
:100a50000188a300060032008100d1000080d3008d
:100a60008984d3000884d3000402e80027003700fb
:100a70000178a30025003a000100e00003003200e5
:100a80008186cf00698656000a0037008c0020005e
:100a90000000e00004003a000900780088047800b3
:100aa0000004eb00700252008086cf000d06460065
:100ab0000c06e9007060e100060035008000780057
:100ac00009007800880478000004eb0070065600e6
:100ad000700252000c00e0000c0034008c08dd00b5
:100ae000f00316000703de00868070000c00dd00b6
:100af000074bde00060070008c4cdd000743de0073
:100b0000868474000c44dd000c0252006120e10078
:100b10002000350061016000070028008781640023
:100b2000f7ff270087836400070374000300e000d9
:100b30000600320082037300040032000000e80067
:100b4000e08048000188a3000e003a00f70f200063
:100b50000720e1004a003d000170a1004722dd00ae
:100b6000810072008a8070000000be004f06be0047
:100b70004f05be004f04be00000006006000b80034
:100b8000faff37008100d1000080d3000402e800a2
:100b9000eeff370004017800890174001b01070093
:100ba0008a807000f1ff37004201070007027800d9
:100bb0000001fd008101fd003e0107008702780071
:100bc000850372000778a300040032000001fd00d5
:100bd0008101fd0051010700e4ff37008503620039
:100be0000768a300080032000b50e1000300320048
:100bf000f0ff2f00f1ff2700dcff37000001fd00b0
:100c00008101fd00d9ff37000468a300d7ff32003f
:100c1000faff3700f8ff2700888360000b003a00d6
:100c20000000e00009003a0083036400828373003f
:100c3000020032000200be00ccff37000b50e10082
:100c4000ceff3a000200be00c8ff370014002000ab
:100c5000810064003eff3700f8ff270088836100b1
:100c600004003a000200e00002003a008c00780024
:100c7000beff3700150020008301640039ff3700f4
:100c800001f827000000200081007500b7ff370041
:100c9000889fbe008a9fbe008c9fbe001b00200064
:100ca0000202be00058668000600280006066600ef
:100cb0004709de00f20fb200820032000243e80072
:100cc00080003200c729de00f30fb2007d00320041
:100cd0000343e8007b003200f107b2000170a0007e
:100ce000f507b2000570a000c708dd004903de006b
:100cf000868070004700dd00c72add004923de0042
:100d0000868272004722dd00030551000403500073
:100d100085835800030031000000400081804800b6
:100d20000a05e9008c1f78008a9fbe00040050006d
:100d3000858058000402420085824a00000040007d
:100d4000818048000005eb000004be006033b8005d
:100d50000406be000d48e1005600310011000900f4
:100d60004dccd8000c01b8000d02b80084814100c0
:100d700060824a008283530003045c0084845c0028
:100d800060055d000a00e00025003a00800578005b
:100d90000d40e1004900310088007800070078002c
:100da000110009004d88d8000c01b8000d02b800f0
:100db0008481410060824a006003110083835b00ec
:100dc00004045c00e0845c000900e00021003a00bb
:100dd0004f01be000300e0002b003200e301600081
:100de000070673008c8171000100320064007000fe
:100df0004200de004e5edd000c007000c258de00d6
:100e000001e0a000ce000700cf01780081807100d2
:100e10004f06be004f05be004f04be000000060096
:100e20008c8343000d044c00e0844c0060054d00b1
:100e30000000e9000a00e000d4ff32008c83430088
:100e40000d044c00e0844c0060054d000000e900fa
:100e5000ceff37000c0343008d834b0060044c0031
:100e6000e0844c000000e9000900e000d8ff3200f7
:100e70000c0343008d834b0060044c00e0844c0065
:100e80000000e900d2ff37004200de004e5edd00c8
:100e90000c007000c258de0001e0a000cf01780015
:100ea0000300e000daff320060001000e08018006c
:100eb000d7ff3700f0ff2f00aaff3700f0ff2f0009
:100ec000b9ff37000404be007a00070087067800e7
:100ed0000004fd008104fd00760007000783660022
:100ee0000678a300030032000960a7000800be00d6
:100ef0002c0037000d78a300020032000800be006d
:100f0000280037000778a30026003a0001f0a1006e
:100f100009f0a1000668a30003003200f1ff2700da
:100f2000f0ff2f00baff37000d68a3000300320066
:100f30000800be008c807000b5ff37000768a30072
:100f400007003a000648a30003003200f1ff270023
:100f5000f0ff2f00aeff37000d48a3000300320062
:100f60006000b8008c807000a9ff37000748a3001c
:100f70000400320001f82700000020008c8070007f
:100f8000a3ff3700c10007000004fd008104fd003d
:100f900002057800bd0007000802be008a01780043
:100fa00059ff37000160a00012022000f2408800c3
:100fb00097ff37000100e000120032000500e0005a
:100fc00010003200889fbe008a9fbe008c9fbe002a
:100fd0000006eb0001f8a3000300320060001000df
:100fe000e08018000cf0a00005f8a3000300320018
:100ff00060021200e0821a000cf0a2008005eb00f3
:1010000041ff37006000b800020005000100e00069
:1010100026003200610111007810e10023003c003d
:101020006022b8007010e1000400350080027800f2
:10103000010078008000eb00700151000200e00028
:101040000900340070031100062add00822ade0048
:101050008603dd00878272000200de00860bdd0061
:10106000070070008208de0084817100f4ff270011
:10107000048262008481710004002800848262007e
:101080006102600005f0a600000006000482710005
:10109000070032000000e800e08048000000060081
:1010a0000002be006000b800efff37006000b8002b
:1010b000000006002700200001f0a7001700200014
:1010c000470bde00f60fb200040032000643e800d2
:1010d0000a0032004702b300000006000103780056
:1010e000f607b2000603700002003a000703b300df
:1010f000000006008702b30000000600010378002c
:10110000f607b20006037000020032000770a0006c
:10111000000006000760a000000006000478a3009d
:10112000040032000578a300030032000168a30028
:1011300001003a000200be000160a00000000600ad
:1011400081017000270032008002eb0001f8a3004b
:101150000300320060001000e0801800150020003d
:10116000f40720000202420020003400f7032000b0
:1011700087036000060420000003630002082000cb
:10118000000161004700de00c909dd000080710038
:10119000c708de000600e000080032008703710087
:1011a000060032001000b0000180b0000188a300ea
:1011b00002003200c108de000402e800f107b200bc
:1011c000f30f20000320e10003003d004722dd0073
:1011d000810072002900370001f827000000eb00b1
:1011e000260037006000b800000006006802120008
:1011f0007f20e100020034006000b8001f003700cb
:101200006011b8007020e100040035008001780012
:10121000010078008000eb00700252000400e00042
:1012200009003400f00312000719dd008419de0004
:101230000703dd00868171000400de00070bdd007e
:10124000060070008408de00f7ff27008383630038
:1012500087037100060028000303630007003200c3
:101260000700e00003003a006101600002817300a2
:10127000020032001000b0000180b0000500a6009e
:101280000000060001f0a000000006004f0ade008a
:101290004709de00f107b200f20fb2000b00320086
:1012a000f207b1000170a000c708dd00c901de002f
:1012b000838070004700dd000400a60000000600e7
:1012c00060001000e080180000000600810f700030
:1012d00001003a00000006008182cf000500e00016
:1012e00010003e008082cf00ee8242007028e100b4
:1012f0000400390007003e00800078000000eb0089
:101300000e003700708312008600de000500dd004d
:101310000a003700708352008600dd000000eb00f9
:1013200006003700e28252008508dd00708312005b
:101330000603de00868070000500dd007507b00042
:101340000501ea000400a60000000600600010008d
:10135000e080180000000600889fbe008a9fbe0043
:1013600000827000040271000482710026003200c5
:101370000004be000200be006011b8006b0920002e
:10138000950220000182cf000a0039000541b1001a
:101390000082cf00070039000541b1000982cf006b
:1013a000040039000541b1000882cf000100390076
:1013b0000541b10005425200120032000a003b0014
:1013c00082817100610164008100d1000080d3003e
:1013d0008984d3000884d3008b05e8000442e80028
:1013e000f7ff3a00070037000804440089844c00e6
:1013f00000004800818048008b05e9000442e900b4
:10140000f9ff3a00030007004f05be004f04be007d
:101410000000060081002000618055000b003d00a7
:101420000b00200061fe2f000100e1001d003400d0
:1014300082817100610164008904d1000884d300b5
:101440000000e800faff3a0071002000610064002b
:1014500003007000020060000900320061044400d3
:10146000e0844c000988a500050032008b05e800e7
:101470006808e10002003a008904d1000884d30022
:10148000f20f20000258e10005003d00c75ddd00bd
:10149000f907b20089807500080078000000060096
:1014a0000bf827008b007800000005008000eb009f
:1014b000390137008000780010002000020220006f
:1014c000828f500004003200e9805000e48f500009
:1014d000010036000000eb0000000600889fbe00ff
:1014e0008a1f7800000578000a0478009844780084
:1014f0000805e8000900fb00eeff07000000e0001f
:10150000f9ff3a00b0c2b30080cf540005003200aa
:10151000d0c2b3008000eb0080cf540005003a0039
:10152000020037008000eb000100370011002000ae
:101530000804e8000000eb00030037006a02b9006d
:10154000020052000003b0003801fb0003fd2f0031
:1015500082814100e98f5100f8ff36000100e00070
:1015600001003a000000ea004f0578004f04be0079
:101570000000060080007800100020000202200019
:10158000828f500004003200e9805000e48f500048
:10159000010036000000eb0000000600889fbe003e
:1015a0008a9fbe00000578008a04780019447800fc
:1015b0000905e8000800fb00eeff07000000e0005e
:1015c000f9ff3a00b0c2b300804f5400040032006b
:1015d000d0c2b300804f540006003a00020037002a
:1015e0000004eb0001003700180020008904e80027
:1015f000010037000004eb006000b800060037006f
:10160000a200200003002000fc150700cfd5de005b
:101610000a0050008b8058003905fb000a03b10016
:10162000e90f5500f6ff36000800e00002003a001e
:1016300060001000e08018004f05be004f04be009f
:101640000000060080007800100020000202200048
:10165000828f500004003200e9805000e48f500077
:10166000010036000000eb0000000600889fbe006d
:101670008a1f780080047800090578001a447800f1
:101680008a04e8000800fb00eeff07000000e0000d
:10169000f9ff3a00b0c2b300804f5400040032009a
:1016a000d0c2b300804f540006003a000200370059
:1016b0000004eb0001003700180020000a05e800d4
:1016c000010037000004eb006000b8006011b800b2
:1016d00009003700a4002000050020006033b80096
:1016e000a41907004fcade0009005000848058008a
:1016f0000401590084815900ba04fb000903b100b8
:10170000e98f5400f3ff36000800e00006003a00bd
:101710006022b8006033b8000000520081805a0097
:1017200002015b0083815b004f0578004f04be001f
:1017300000000600889fbe008a9fbe0080047800db
:101740000200e0005b00320001407800814c78002c
:1017500082814400f1f99f00e20f510055003600ec
:1017600091449800a1449800e1f99f00d1f99f00ad
:10177000e60f51004f003600b1449800c1f99f00b8
:10178000e80f51004b0036000905ea0063056500cb
:101790000a8444000a055100c1ff2f0001056500bd
:1017a0000080fb008000eb001210200013102000ce
:1017b00092150700008cbe000a01440060b99f002a
:1017c00071b99f00e80f55003a00360020049800d8
:1017d00031049800400498005104980020b99f00fb
:1017e00031b99f0040b99f0051b99f00f80f5500d3
:1017f000300036006004980071049800000c9800d6
:10180000110c9800200c9800310c9800400c9800a6
:10181000510c980020b19f0031b19f0040b19f0052
:1018200051b19f0060b19f0071b19f0000b99f004e
:1018300011b99f0064016400780141000204440072
:10184000020555006011b8000203be000002be0090
:101850000403be006022b8000000720081807200a4
:10186000020173008381730010003700009cbe00ea
:101870000294be004004980051049800620498004d
:1018800073049800000c9800110c9800220c98002a
:10189000330c9800400c9800510c9800620c980092
:1018a000730c98000a02b1000802b000ff0f550047
:1018b000eeff3e00090078004f05be004f04be0059
:1018c000000006000000fa00e88157004fb99700b9
:1018d000360007000080fa00000006003c00fa0015
:1018e000889fbe008a9fbe000004be0002057800eb
:1018f0000f0078004004b1001d0009000018eb0043
:1019000088a79f00d8af9f000080eb00e0af9f004a
:101910006022b8006033b800c0fb2f000f00400009
:101920003d090700120020008a007800c0fb2f004c
:101930000f004000220807006fb29700ffb2970027
:101940000fbb97009fbb9700dfad97000fa59700d7
:101950000900e000090032000a855500cfd5de00fd
:101960000402450085824d0006834d0087834d00ab
:101970000100320004044400880c78004f05be00ca
:101980004f04be000080fa00000006000001eb00da
:10199000d2ff0700eb14370012002000cfff070032
:1019a000e814370022002000ccff37000f04b000fd
:1019b0008e1f780002027800030178000000e0002a
:1019c0000200320000077800020037000efc2f00f2
:1019d0000f0747008002eb000100e0000100320029
:1019e0008102e9000f007800e003b1001d0009004a
:1019f0000018eb000080eb0090a79f002310200050
:101a0000a3a79f00bea79f00c1a79f00d5a79f00c7
:101a10000100e00003003d00b1042000e1888800df
:101a200007003700004feb00fea79f00eea79f00c6
:101a30008400780020fc2f000f004000b30907004d
:101a40004f0778000f04b100000006008000780006
:101a50001000200002022000828f5000040032009b
:101a6000e9805000e48f5000010036000000eb00d8
:101a7000000006000800fa00889fbe008a9fbe0092
:101a8000000478008105780078089000b810900074
:101a9000810f500003003100b084fb00700c9800ef
:101aa0000300370008007800000907008004780070
:101ab000b0022000808f5400040032000005eb00cb
:101ac000d0022000808f54001b003a00d982b2005f
:101ad00009f0a7008904ea008904e9004f4dde00ff
:101ae00078089000b8109000810f5000030031007a
:101af000b084fb00700c98000300370008007800e9
:101b0000ea0807008004780000fd2f00090040006b
:101b1000e90f5000080036000b00e000060032001c
:101b2000381090000000e0000300320078089000b8
:101b30000000e900700c980000fd2f000900400033
:101b40008005eb00e90f50001300360038109000bc
:101b50000000e00072003200780890000000e90008
:101b6000700c98006e0037006a59b9008205400079
:101b700078089000b8109000810f500003003100e9
:101b8000b084fb00700c9800030037000800780058
:101b9000c60807008004780000fd2f0009004000ff
:101ba000e90f500003003e00b1cc2000818f5500aa
:101bb000edff3400615ab900612bb90084bf9f006a
:101bc00095bf9f00a6bf9f00b7bf9f001f003700b3
:101bd000a4002000050020006033b8000fb8970073
:101be0009fb897002fb99700bfb9970061180700f9
:101bf000cfcdde000082440081824d0002834d0083
:101c000083834d000403b1000580b1000680b1005c
:101c10000780b10084bf9f0095bf9f00a6bf9f00b3
:101c2000b7bf9f0078089000b8109000810f500057
:101c300003003100b084fb00700c980003003700f3
:101c400008007800990807008004780000fd2f0044
:101c500009004000e90f500017003e00d07a240030
:101c600011ae270042e12a00731420000fba97003a
:101c70009fba97002fbb9700bfbb97000020e100e1
:101c800001a8e10002b0e10003b8e100d0ff340098
:101c90000900370078089000810f500003003100e0
:101ca000b084fb00700c9800030037000800780037
:101cb0007e080700800478000903b100b810900086
:101cc000e98f5400f3ff36000100e000030032000a
:101cd000780890000000e900700c98000a00e0000d
:101ce000160032006000b8006011b8000fba97000b
:101cf0009fba97002fbb9700bfbb9700040250000c
:101d000085825800060359008783590084bf9f00cd
:101d100095bf9f00a6bf9f00b7bf9f000700370079
:101d20006000b800020020000300280080bf9f0070
:101d300091bf9f00a2bf9f00b3bf9f000fb8970045
:101d40009fb897002fb99700bfb997004f05be0005
:101d50004f04be000080fa00000006000f04b0002f
:101d6000889fbe008a9fbe008c9fbe008e1f780099
:101d700000067800b1a79f00c29f9f00a3a79f0005
:101d8000b49f9f00fc0890003c109000808f500092
:101d9000040031003180fb00710e98000007eb0059
:101da0000d0037000c00780040080700fbff3700eb
:101db000fc0890003c109000808f50000300310020
:101dc0003180fb00710e9800020037000c00780093
:101dd000360807001e00200001032000810f50007c
:101de000f3ff32006022b8006033b80094af9f0068
:101df000a5af9f00b6af9f00c7af9f008002eb006a
:101e000095a79f00e1022000810f500023003a00b7
:101e1000fc0890003c109000808f500005003100bd
:101e20003180fb00710e98006044b8006055b80026
:101e3000110037000c0078001c080700faff37007b
:101e4000fc0890003c109000808f5000030031008f
:101e50003180fb00710e9800020037000c00780002
:101e60001208070061045400e0845c0060055d0016
:101e7000e0855d001e00200001032000810f50005e
:101e8000efff320098af9f00a9af9f00baaf9f004d
:101e9000cbaf9f001500200095a79f006022b800df
:101ea0006033b800d4af9f00e5af9f00f6af9f004e
:101eb00087b79f008002eb00a59f9f006022b800bb
:101ec0000600200007ff2300d49f9f00e59f9f008e
:101ed000f69f9f0087a79f006044b8006055b80038
:101ee0006033b800f6a79f0087af9f0084003700db
:101ef000e1022000810f50000e003a009fa39700de
:101f00000700e0008b003a005fa89700efa8970059
:101f10007fa997008fb1970090af9f00a1af9f005e
:101f2000b2af9f00c3af9f001100200091a79f0098
:101f30006a00370091032000810f50000300340035
:101f40000050a0009dfa2f008086460070002000ff
:101f5000010020006011b8005faa9700efaa970067
:101f60007fab97008fb397000020e10001a8e1004c
:101f700002b0e10003b8e1000c003c007fa3970031
:101f80008fab97004438dd00cc30de00810070005c
:101f90004430dd004feade000081460081014a0046
:101fa000f2a79f0083af9f003f003700d0002000c2
:101fb000010020006011b8005faa9700efaa970007
:101fc0007fab97008fb397000020e10001a8e100ec
:101fd00002b0e10003b8e1001d003c006022b8003f
:101fe0000600200007fb23005f989700ef989700fa
:101ff0007f9997008fa19700861407000002be000a
:102000000203be00d49f9f00e59f9f00f69f9f00a4
:1020100087a79f006168b900421307005f9a970085
:10202000ef9a97007f9b97008fa397007914070082
:102030000002be000203be000800be000a01be008e
:102040007a1307000004be000205be001600370028
:102050000d00e00014003200af9a97000500e00088
:1020600011003a006022b8000600200007fe23009d
:102070005f989700ef9897007f9997008fa197003e
:10208000641407000002be000203be000800be0088
:102090000a01be00651307000004be000205be0071
:1020a00016002000a69f9f005fa89700efa897004a
:1020b0007fa997008fb1970061004000e080480041
:1020c00060014900e0814900d0af9f00e1af9f006f
:1020d000f2af9f0083b79f001e002000fc08900015
:1020e0003c109000808f5000030031003180fb00d5
:1020f000710e9800020037000c0078006b07070093
:102100000dfd2f0080864600e98f560078ff3600cf
:10211000800078000150a0001106b100e58f50004a
:1021200073ff3600e1022000810f500073ff320080
:1021300001003700e00220000e00e0001e003a001f
:102140003c1090000000e00003003200fc0890000a
:102150008100e900710e9800bf9897000100e0002f
:102160000e0032000000e00003003200fc08900086
:102170008100e900710e98001fa197000200e000a5
:102180000a0032000000e000080032007c089000e5
:102190000000e900700e9800040037006022b800cb
:1021a0006033b8000c0078001b070700afa1970050
:1021b0006118b900510037001fa297000400e00029
:1021c00016003a005faa9700efaa97007fab97002e
:1021d0008fb3970094af9f00a5af9f00b6af9f004d
:1021e000c7af9f00110037007fa197008fa997000c
:1021f0004418dd00cc10de00810070004410dd00ca
:10220000f0a79f0081af9f0061024200e0824a0078
:1022100060034b00e0834b00050037005faa970086
:10222000efaa97007fab97008fb3970080067800e6
:1022300070002000010020006011b8000020e100c3
:1022400001a8e10002b0e10003b8e100e6ff3400bc
:102250000d0078000050a00001072000810f500001
:1022600015003a00bf9897000c00780001fe0700a7
:102270006022b80006002000070028000400e100ea
:102280000588e1000690e1000798e10014003a009b
:10229000bf9997000300e00007003a006022b800f1
:1022a0006033b8000c007800db0607006000b8005f
:1022b0006011b8003c0137003c1290006000b8008b
:1022c0006011b8000400e000050032007c089000b6
:1022d0000000e900700e98006000b8006011b800be
:1022e0007fa297008faa9700e00f5200e08f5a005c
:1022f00007003a00afa297006128b9008c120700ce
:102300006011b800e41407003b12070026013700f3
:102310001faa9700afaa97003fab9700cfab9700db
:1023200068025200e0825a0060035b00e0835b00b9
:102330002c0020000402d0008582d2000683d20047
:102340008783d2000c06e900faff3a00040240003d
:10235000858248000603490087834900d4af9f0067
:10236000e5af9f00f6af9f0087b79f00cf9a970019
:102370000500ea00cf80de006109b9005faa97007e
:10238000efaa97007fab97008fb397000020e10082
:1023900001a8e10002b0e10003b8e1000f00340041
:1023a00020022000e0888800afa297006128b900d1
:1023b0005c120700f4ff2f00f5ff2f00f6ff2f003f
:1023c000f7fe270093130700f4ff2f00f5ff2f00ff
:1023d000f6ff2f00f7fe27001a0037004f9b9700eb
:1023e00067f92f0007004300cf80de006109b900c4
:1023f0005faa9700efaa97007fab97008fb3970073
:102400000020e10001a8e10002b0e10003b8e10012
:1024100039003d0020022000e0888800afa297002c
:102420006128b9003f1207006022b80006002000b2
:1024300007012000771307006022b8000600200083
:102440000701200073130700d70037006022b8008f
:102450000600200007fe23000800be000a01be009f
:10246000cc1107000c0646008d864e000000e000ef
:102470000d00350061064600e0864e006022b8007f
:102480000600200007ff23000800be000a01be006e
:10249000601207000002be000203be000800be007a
:1024a0000a01be00040037000802be000a03be0095
:1024b0000800be000a01be005c1207000004be0056
:1024c0000205be005fa89700efa897007fa99700bc
:1024d0008fb1970061005000e08058006001590002
:1024e000e0815900d0af9f00e1af9f00f2af9f00a5
:1024f00083b79f00020037007fa697008fae97003a
:10250000e00f5600e08f5e00d0ff3d00fca79f006b
:102510008daf9f003fa29700cfa2de00612bb900d4
:1025200094af9f00a5af9f00b6af9f00c7af9f00bd
:1025300000022000010020006011b800cf9a97002f
:102540004faede00050250008c8258000c0359008b
:102550008c835900d49f9f00e59f9f00f69f9f00aa
:1025600087a79f005fa89700efa897007fa9970013
:102570008fb197000000420081804a0002014b00a9
:1025800083814b00d0b79f00e1b79f00f2b79f0057
:1025900083bf9f001faa9700afaa97003fab970089
:1025a000cfab97000020e10001a8e10002b0e100fc
:1025b00003b8e10006003400dfaa97004f9b9700a4
:1025c000068052000002b000b0a79f000b0033004d
:1025d0006000b8006011b80090af9f00a1af9f00ed
:1025e000b2af9f00c3af9f0040032000bfa0970081
:1025f000808f500038003c00020037000001eb00e3
:10260000b2a79f0042052000bfa19700030151001f
:102610000000200001f82300591907000006be0041
:102620002fa297006120b900be1107000002be0072
:102630000203be000c00be0094b79f00a5b79f0028
:10264000b2b79f00c7b79f006b1107001fb297007a
:10265000afb297003fb39700cfb3970010170700b2
:102660000002be000203be0094af9f00a5af9f0012
:10267000b6af9f00c7af9f00bfa29700ff8f520069
:1026800015003c006022b8006033b8000800be00ae
:102690000a01be00531107000000e0000e003200e6
:1026a0006000b8007fa3970061006300e00f500056
:1026b000e08f580008003a007fa697008fae970081
:1026c00061064600e0864e00fca79f008daf9f008c
:1026d0006044b8006055b800afa697006168b900c3
:1026e000901107000002be000203be00b4a79f00c5
:1026f000c5a79f00d6a79f00e7a79f000802be00be
:102700000a03be00c31207000004be000205be009b
:102710007fa097008fa89700881107000002be00d5
:102720000203be003fa09700cfa097005fa19700d3
:10273000efa19700b71207000002be000203be001f
:102740001fa89700afa897003fa99700cfa99700af
:10275000b61107000802be000a03be00b31107004d
:102760001faa9700afaa97003fab9700cfab970087
:10277000a81107000004be000205be006022b800d8
:102780006033b800171107000000e00002003a00b3
:1027900020022000e08888005faa97000800be00a1
:1027a0000a01be00201907004f0778004f06be003f
:1027b0004f05be004f04be000f04b100000006002c
:1027c000cf23b000889fbe008a9fbe008c9fbe00b2
:1027d0008e1f78000004780001007800b2a79f00e7
:1027e000e39f9f0094af9f00850578008006eb0073
:1027f0000a003700f808900038109000808f5000d1
:10280000030031003180fb00710c9800020037009a
:1028100008007800a50507001d0020000103200026
:10282000810f5000f3ff32000006eb006022b80079
:102830006033b80094b79f00a5b79f00b6b79f005c
:10284000c7b79f00e1022000810f50002a003a0024
:10285000f808900038109000808f50000900310077
:102860003180fb00710c98006022b8006033b80022
:1028700094b79f00a5b79f00b6b79f00c7b79f004a
:10288000190037000800780088050700f6ff3700b8
:102890001fb09700afb097003fb19700cfb197003e
:1028a00061005000e080580060015900e08159004b
:1028b00090b79f00a1b79f00b2b79f00c3b79f001a
:1028c000f808900038109000808f5000030031000d
:1028d0003180fb00710c980002003700080078007e
:1028e000720507001d00200001032000810f500029
:1028f000e7ff32001c0020006011b800c29f9d005d
:10290000d39f9d008004eb006022b8006033b800c4
:10291000d4af9f00e5af9f00f6af9f0087b79f0041
:10292000090778000905780052003700810f500030
:102930000c003a000c00e00058003a005fa8970035
:10294000efa897007fa997008fb1970090b79f00dd
:10295000a1b79f00b2b79f00c3b79f001c00200023
:102960003b003700010320005faa9700efaa970001
:102970007fab97008fb3970061024200e0824a006c
:1029800060034b00e0834b00d4af9f00e5af9f0096
:10299000f6af9f0087b79f00c3072000830f570043
:1029a00023003c00810f500001003200dfac970093
:1029b000c276dd000a00e0001100320085db2f0046
:1029c0008f8242008d8642006102b9000403b1008b
:1029d0000580b100a2002000030020001d00be0001
:1029e000d4b79f00e5b79f00041107005fb29700be
:1029f000efb29700801e420081964a000500370022
:102a000086db2f000f0343008d064300cf91de00cd
:102a1000828ebe000a05e8001d002000e90f550067
:102a20000b003a000d0747000005eb0008003700d7
:102a3000810f5000060032004f909700df90970002
:102a40000000a000c0979f00d1979f00c9452000bb
:102a5000f808900038109000808f5000030031007b
:102a60003180fb00710c98000200370008007800ec
:102a70000e05070002fd2f0000014100e1022000c9
:102a8000e90f5100a9ff3600810f5000a9ff320065
:102a90000c00e000030032000a003700e0022000d2
:102aa000080037005faa9700efaa97007fab970056
:102ab0008fb3970094b79f00a5b79f00b6b79f004c
:102ac000c7b79f000d00e000290032000001780028
:102ad0000250a00051062000810f510024003a004e
:102ae0008b00780008007800e2fb07006022b80045
:102af00006002000070028000400e1000588e1002e
:102b00000690e1000798e1000c003a000b00e0009d
:102b100023003200381290006000b8006011b80045
:102b20000400e00005003200780890000000e90091
:102b3000700c98006000b8006011b8001fb29700d8
:102b4000afb297003fb39700cfb3970000024200a7
:102b500081824a0002034b0083834b0094b79f009d
:102b6000a5b79f00b6b79f00c7b79f0013003700f7
:102b70000000e00006003500381090000000e00082
:102b800003003200780890000000e900700c980003
:102b90000d00e00009003a0060012000e088880094
:102ba0006022b8006033b800080078009a0407007b
:102bb0006000b8006011b800780337004f9e9500a0
:102bc000df9e9500e00f5600e08f5e0007003a00a0
:102bd0009faa97006128b900551007006011b8003e
:102be000ad120700041007006c0337001fb09700f8
:102bf000afb097003fb19700cfb197005faa9700a1
:102c0000efaa97007fab97008fb397000400e10015
:102c10000588e1000690e1000798e10020003a00f5
:102c200090002000010020006011b8001fb2970042
:102c3000afb297003fb39700cfb397000020e100f9
:102c400001a8e10002b0e10003b8e10014003c007b
:102c5000bfa29700fe8f52000a003c000c00be008d
:102c6000050378000603e900030033008100d1006a
:102c70000080d300fbff3700e00f5000e08f5800ca
:102c800007003a009fab97006138b9002510070094
:102c90000004be000205be000c00be00600037004c
:102ca000220020006f9e9700110009000206d80044
:102cb0000000ea00cf80de006109b9001fb2970072
:102cc000afb297003fb39700cfb397000020e10069
:102cd00001a8e10002b0e10003b8e1000f003400f8
:102ce00020022000e08888009faa97006128b90090
:102cf0000c100700f4ff2f00f5ff2f00f6ff2f0048
:102d0000f7fe270043110700f4ff2f00f5ff2f0007
:102d1000f6ff2f00f7fe27008e0037006f9b97000d
:102d200067f92f0007004300cf80de006109b9007a
:102d30001fb29700afb297003fb39700cfb3970091
:102d40000020e10001a8e10002b0e10003b8e100c9
:102d50000d003d0020022000e08888009faa970017
:102d60006128b900ef0f07006022b80006002000bc
:102d700007012000271107006022b800060020008c
:102d800007012000730037000a00e0000e00320047
:102d90000a0037004274dd0086db2f000f0343007a
:102da00008044300a2002000030020001800be0019
:102db00012100700008cbe000a05e800e80f55005d
:102dc000f4ff34000e07e8009fb39700e88f54002b
:102dd00002003c00878f5400050034004270dd0083
:102de0008cdb2f000f064600000046005c00370019
:102df0009fb69700f18f5600f8ff3c00e98f560010
:102e000009003a001fa997006110b900c50f07001b
:102e10000004be000205be004f989500df989500a3
:102e2000c60f0700470037009fb19700e88f510099
:102e30001c003c001faa97006120b900b90f0700d1
:102e40000004be000205be004f989500df98950073
:102e5000ba0f07000002be000203be000800be0059
:102e60000a01be00eb1007000004be000205be0010
:102e70009fb29700688012004200dd00210b210004
:102e8000008040001000be00a60f07000002be0038
:102e90000203be000800be000a01be002e1007009b
:102ea000be0237003fa397007b004300d2ff2f00f4
:102eb0009fb3970002b9b90002014000fe0f510014
:102ec0000a003c004f989500df9895000201e90048
:102ed000030033008100d1000080d300fbff3700e6
:102ee000e00f5000e08f5800bcff3a001fae970083
:102ef0006160b9008b0f07000004be000205be0030
:102f00004f989500df9895008c0f07000002be00d7
:102f10000203be000800be000a01be00bd1007008b
:102f20000004be000205be009fb697006a805600ee
:102f30004200dd00210b2100008040001000be0097
:102f4000780f07000002be000203be000800be00aa
:102f50000a01be00af100700900237000e07e9001b
:102f60004001be00e00f5100e08f5900fbff32002e
:102f7000940020009fb09700110009008400d80041
:102f8000010278000001eb00d2af9f000400e000d6
:102f9000520032009fb197000300e00001003d00a5
:102fa00069024200680012004200dd00210b21008e
:102fb000008040001005be0046db2f000f034300d9
:102fc0006044b8008002eb00d5af9f00c4a79f000b
:102fd0000800be0085047800060478000002be00e8
:102fe0002d0037005806be000a01be000c00be00ce
:102ff000d4b79f00e5b79f0027f607005fb29700a0
:10300000efb297000403400085834800068cbe00a1
:103010000a01be0000a02c00a1b92300f6b79f0052
:1030200087bf9f00e00e07000002be000a01be003d
:103030000c00be00d4b79f00e5b79f006c0f0700df
:103040000001be005fb29700efb297000400be001f
:103050006a0f07000002be000900e8007fb3970076
:103060008fbb97005fae97008c8f540009003a0029
:10307000e00f5300e08f5b0006003a008006780006
:10308000fd07b200ddaf9f009fb09700e9805000c0
:1030900091b79f00800478008e8f5400d1ff3a00d2
:1030a0000404be004fa29700e00f5400e08f5c00c4
:1030b000060032004270dd0082db2f000f0141006c
:1030c000000041000888be000e07e80069021200f7
:1030d0009fb197008481410093b79f000002eb00ed
:1030e000c4a79f00dfae97006c003700cfa2970007
:1030f000fd825200c5a79f000e06e900fc07b20042
:103100006033b800d6af9f00e7af9f004260dd009c
:1031100087db2f008f83430080834300d7a79f0066
:103120001704be006055b800cd55dd004348de00f1
:103130008b0570004d4ddd004340de000a05700038
:10314000cd44dd000004eb005fa99700efa99700d4
:10315000080441008984490060054d00e0854d0068
:1031600004a02c00a5b923006033b8000440e1009e
:1031700005c8e10006d0e10007d8e1000e003600e6
:103180000800be000a01be0091120700d0af9f00e8
:10319000e1af9f0004a02c00a5b923006033b80064
:1031a0000800be000a01be0090120700dfa39700ce
:1031b000808bbe00050037005fa097000888be0026
:1031c0006011b800d2af9f00e3af9f000e00e9008e
:1031d000f007b200800f56000b003a008d0f56002a
:1031e0000e0032004260dd0083db2f008f81410042
:1031f000008041001000be00e00f5000e08f58003a
:10320000ed013200020037008d0f5600030032003e
:103210000c06e900fc07b200bcff37005faa97006c
:10322000efaa9700e00f5200e08f5a001b00320017
:103230009fb29700e982420095b79f008d06e90092
:10324000fd07b2008e8f56000d003a000d07e90011
:10325000fe07b2000e00e900f007b2004200dd00f8
:1032600086db2f000f03430000004300c270dd0027
:10327000810043001001be003118710021907100df
:103280004268dd0083db2f008f8141000080410018
:103290005faa9700efaa97000488be009fb297002c
:1032a000f18f520091ff3400f28f520009003a0072
:1032b0004269dd0086db2f000f034300020143005b
:1032c000e005270091082000b20f1000a28f18001f
:1032d00086ff36008d037800e20c21000000eb0031
:1032e00087004000f107b2008e8f50000d003200c1
:1032f000c208dd0083db2f008f8141008180410007
:103300001104be005202be00840f5400858f5c0081
:10331000040039000d003e000000e800e20f5000fc
:10332000efff3a001fb29700f20f520007003a0079
:10333000d7af9f006044b8006055b8008006eb002e
:103340000800be000a01be00670037009900200097
:103350009fb29700fb8f520001003c001900200033
:103360004fa3970009034300c6a79f001000200049
:103370000900dd000000e9006101b900d2a79f004b
:10338000e3a79f000aa02c00abb9230089017800b5
:103390008301e900030033008b85d1000a85d30047
:1033a000fbff3700070478006000b800d0af9f0033
:1033b000e1af9f000a02be001fb5970087057800a5
:1033c0002d003700c240dd0086db2f000f034300d5
:1033d000810043001101be000203be00090678000f
:1033e0000c06e900030033008703d1000683d300f5
:1033f000fbff37005fae9700efae97000603460075
:1034000087834e008688be006fa097008306600009
:10341000dfa09700028660000401be000c00be0021
:10342000d4b79f00e5b79f00f6b79f0087bf9f0006
:10343000720e0700d0af9f00e1af9f000800e800c8
:103440005fb29700efb297007fb397008fbb9700f2
:103450008b0f540006003a00e00f5300e08f5b0032
:1034600003003a0080057800fb07b20069055500ab
:1034700000047800f807b2008e0f5400d1ff3a0024
:103480008b0378009ab79f005fa89700efa897007a
:10349000e00f5000e08f58008fff32000e01e8006f
:1034a000f207b200870f5100070032004277dd00bb
:1034b00083db2f008f8141000e874100008fbe000b
:1034c0000207780084ff37000e00e900f007b20021
:1034d0004200dd0084db2f000f02420000004200aa
:1034e0001000a0007cff3700dfaa97000586460089
:1034f000fc07b2008e0f560009003a000e07e800e4
:10350000fe07b2000e02e9004222dd0086db2f003a
:103510000f03430004024300000aeb00341278005a
:103520006022b80056d62c00d71c2400390f0700a3
:103530000004be000205be004266dd0087db2f00ee
:103540008f8343000c8643001c00be00fb0d070068
:103550000002be000203be000800be000a01be0059
:10356000320e07008d06e800e28f5600deff3a00bb
:103570000004be000205be001fae97006160b900e6
:10358000e80d07000002be000203be000800be00f6
:103590000a01be001f0f07000002be000203be00aa
:1035a000d4a79f00e5a79f00f6a79f0087af9f00c5
:1035b000cfa297005503b000c59f9f006f9b970057
:1035c00006835200d69f9f00bfa39700868f5300ab
:1035d000060034000600e0000b0035000606780007
:1035e0001d0020009db79f00030037003fa69700f5
:1035f0000000eb0090b79f0040032000800f5600b2
:1036000037003c00030037001100200091b79f00f5
:103610000006eb00920620000c0151000000200083
:1036200001f8230056150700730d07005fa29700ed
:10363000efa297007fa397008fab970018130700a6
:103640000002be000203be00f49f9f0085a79f00fa
:1036500096a79f00a7a79f00520320000c015100ce
:103660000000200001f8230045150700620d070047
:103670000002be000203be005fa09700efa097000b
:103680007fa197008fa99700a71307000004be0031
:103690000205be000002be000203be005fa097004c
:1036a000efa097007fa197008fa99700d90d070081
:1036b0007f9a97008fa297001fa39700afa3970050
:1036c000da0d07000002be000203be00d4a79f006f
:1036d000e5a79f00f6a79f0087af9f00080037006f
:1036e0006000b8006011b800f09f9f0081a79f00a4
:1036f00092a79f00a3a79f000004be000205be0082
:10370000dfa897000180e800f007b2008e0f50009c
:103710004e0032004200dd0082db2f000f0141002d
:10372000000041001001be00f04f2600d1dc210056
:10373000800f5100818f59000e003e00e00f5100b4
:10374000e08f590005003a00dfa99700638041002f
:10375000f007b2008e0f5000250032001faa97001c
:103760006120b900720d07000200200003e8230069
:103770001600370000502600d1dc2100800f5100d8
:10378000818f5900030032009faa97006128b90079
:103790000b0037005fab970063014300f207b200f4
:1037a0009fab97006138b9008e0f510004003a00ba
:1037b0005f0d07000200200003f023000300370024
:1037c0005b0d07000200200003f42300b20f070086
:1037d000090d07000002be000203be000800be0083
:1037e0000a01be00910d07000004be000205be00e4
:1037f000500320000c005000e10f50001300340073
:103800006022b8000600200007ff23000800be0069
:103810000a01be00441307006022b8006033b800fc
:10382000f00c07000000e00008003a006022b80039
:103830000600200007ff23000800be000a01be00aa
:103840007a0d07000004be000205be003fa09700ed
:10385000e3061000ef989700818656000802be002c
:103860000a03be005fa09700efa097007fa197001a
:103870008fa997006d0d07007f9a97008fa2970080
:103880001fa39700afa39700620d07000002be00c0
:103890000203be0094af9f00a5af9f00b6af9f008c
:1038a000c7af9f0064805600cf98970001f0a10039
:1038b000810f500033003c000400be00921207004c
:1038c0006022b8000600200007342400b10c070075
:1038d0000000e0001b0035009fb297000500e000eb
:1038e000070032005f9b970006066e000cf0a700f1
:1038f0000c06ea000c06ea004f66de009cb79f004b
:103900006022b8000600200007fe23001fa89700d1
:10391000afa897003fa99700cfa997003d0e0700d9
:103920000002be000203be0094af9f00a5af9f003f
:10393000b6af9f00c7af9f00cfa297008502e800f7
:10394000c5a79f004fa097004003b0008d0f500007
:103950000a003d001fb397000600e0000900320096
:103960006022b8006033b8000800be000a01be0043
:103970009c0c07000000e000020032002002200042
:10398000e08888004fa297001fa89700afa8970073
:103990003fa99700cfa99700a31407004f0778000d
:1039a0004f06be004f05be004f04be00ef1fb10022
:1039b000ef03b100000006000c07780014fe37008a
:1039c000e4874700889fbe008a9fbe008c9fbe0090
:1039d0008e1f780000047800020778000100e000e4
:1039e000fa003500bbf62f008a012000e18f50005d
:1039f00004003400e28f5000f4003a00ebbc2f00ca
:103a00005a03200078089000b8109000810f5000f1
:103a100003003100b084fb00700c980003003700f5
:103a20000800780021010700800478000900780070
:103a300006f807000000e000f2ff3a00b0022000a4
:103a4000808f5400060032001c002000d0022000ad
:103a5000808f54000e003a002c0020000100370037
:103a60000006eb006106160078089000b810900080
:103a7000810f500003003100b084fb00700c9800ef
:103a80000300370008007800080107008004780070
:103a9000310a21008006eb0011003700e78f560045
:103aa0000c0032007808900038119000820f50000e
:103ab00003003100b084fb00700c98000500370053
:103ac0000800780081bf9f00f8000700800478009c
:103ad0008fb897008d06e800e88f56001f0032006f
:103ae000090178000250a0005100fb00800f510036
:103af000eaff32000d007800e38f56000600320026
:103b0000e88f560015003200e38f5600190036008a
:103b10000e00e000bd003200b81090000100e0008f
:103b200003003200780990000201e900720c98004d
:103b30000e00e00009003200060037000100e0003e
:103b400003003200780990000201e900720c98002d
:103b50000000e900e30f5000f8ff3a00e10f4600d3
:103b60009d003a006000b8000200200003ff2f0013
:103b7000a0003700c10a21000d00e0001200320051
:103b8000a2003700e28f56000c0032007808900047
:103b900038119000820f500003003100b084fb0008
:103ba000700c9800050037000800780081bf9f0066
:103bb000be000700800478008fb897008d06e800eb
:103bc000e38f560006003200090178000250a00081
:103bd0005100fb00800f5100eaff32008b003700dc
:103be000f808900038109000808f500007003100d6
:103bf00080c2b300314068000080fb000000ea0092
:103c00004f00de00710c98000700370008007800b4
:103c1000a60007008082b20000f0a7000000ea00c2
:103c20000000ea004f00de00190020000004e00060
:103c300007003200381090000000e0006a003200f7
:103c4000780890000000e900700c980066003700ca
:103c5000f808900038109000808f50000300310069
:103c60003180fb00710c98000200370008007800da
:103c70008e00070001fd2f0080804000e98f50007a
:103c80000b003600f1fb2f0080804000f98f5000c0
:103c900007003600f1f92f0080804000f98f5000b6
:103ca00003003600f1052000810f500002003a00a9
:103cb0008904e800e6ff370091022000810f5000e0
:103cc00049003200381090000000e000030032008c
:103cd000f80890008100e900710c98000e00e000e7
:103ce00007003a000f0037000000e0000300320038
:103cf000f80890008100e900710c98008904e9003f
:103d00000900e000f8ff3a00370037003810900053
:103d10000000e00003003200780890000000e90095
:103d2000700c980060012000e08888006022b800d4
:103d30006033b80008007800370007002300370020
:103d400000032000808f54001a003a00f808900009
:103d500038109000808f5000030031003180fb004c
:103d6000710c980002003700080078004f0007002f
:103d70000050a00081072000810f500007003a008a
:103d80000e0278008c0178000b0178008a00780020
:103d900008007800f1f7070016003700381090008f
:103da0000000e00003003200780890000000e90005
:103db000700c98008e0278000c0278000a01be0098
:103dc0000800be007efa07000a0037006000b80055
:103dd0006011b800070037006000b8000200200042
:103de00003ff2700030037006000b8000200200036
:103df00083ff27004f0778004f06be004f05be0027
:103e00004f04be004f00b100000006000d00e000ae
:103e1000beff3a00caff3700889fbe008a9fbe00df
:103e2000441098005510980066109800771098007c
:103e3000f00890002004900001045400cfc4de007c
:103e4000614db90008189800191898002a189800b0
:103e50003b189800e00f5200e08f5a00e00f5b0023
:103e6000e08f5b000c00320000149000010454004d
:103e7000cfc4de00614db9000440e10005c8e10097
:103e800006d0e10007d8e1000300340004824000be
:103e90003410980002003700801090003110980014
:103ea0004f05be004f04be00000006002800fa00c7
:103eb000889fbe008a1f780000047800f8089000f0
:103ec0002800900000805000081a9000981a900076
:103ed000281b9000b81b9000cf80de000402400039
:103ee0008582480006834800878348004810900078
:103ef000d810900068119000f8119000e00f500069
:103f0000e08f5800e00f5900e08f590005003200a3
:103f10000020e10001a8e10002b0e10003b8e100e7
:103f20000d003d0008007800d4b79f00e5b79f0062
:103f3000f6b79f0087bf9f001f030700800478002b
:103f40005fb29700efb297007fb397008fbb9700e7
:103f50000900e00016003d0078089000a8009000dd
:103f6000808050004f89de000482400085024900b5
:103f70000603490087034900041c9800151c98009b
:103f8000261c9800371c980030149800f0ff2f0072
:103f9000f1ff2f000001be0040149800511498005a
:103fa00062149800731498008084eb00520037006c
:103fb00061004200e0804a0060014b00e0814b005c
:103fc00090bf9f00a1bf9f00b2bf9f00c3bf9f00d3
:103fd00048129000d812900068139000f8139000d7
:103fe00094b79f00a5b79f00b6b79f00c7b79f00c3
:103ff000e00f5200e08f5a00e00f5b00e08f5b00a3
:1040000028003200780d9000081190000a0151003c
:104010006112b900612bb900d4af9f00e5af9f00da
:10402000f6af9f0087b79f001fb09700afb0970013
:104030003fb19700cfb197001fba9700afba970072
:104040003fbb9700cfbb970004005000858058000d
:10405000060159008781590090af9f00a1af9f00d2
:10406000b2af9f00c3af9f005faa9700efaa97006f
:104070007fab97008fb397000020e10001a8e1001b
:1040800002b0e10003b8e100060034009fb29700df
:104090001fbb970006815200820045003114980032
:1040a0000200370088139000371498002801900010
:1040b000f8089000810151001fba9700afba97002d
:1040c0003fbb9700cfbb97004f98de0004824100b2
:1040d000850248000603480087034800041c980036
:1040e000151c9800261c9800371c9800828f5000e1
:1040f00001003e00f9f89f00090078004f057800a4
:104100004f04be000080fa00000006000200fa0022
:10411000881f780000047800e2bf9f006481570088
:104120000800780084020700980090000148a3006e
:10413000010032000080eb004f0478000080fa009c
:1041400000000600881f78000004780000082000a6
:10415000808f50001700350010082000808f50001d
:104160000b00340030082000808f500011003a000e
:104170009200780068805000000978003002be008c
:104180002003be00049cbe000694be00070037005a
:104190009202780064805200000978001000be008e
:1041a000950a0700009cbe000294be00100020008b
:1041b000010037000000eb004f047800000006000b
:1041c00084082000848f50001d0032000d003c0048
:1041d00014082000848f50002700320002003c00a9
:1041e000040820000400370024082000848f5000b9
:1041f0003400320044082000848f500043003a000d
:1042000036003700040a2000848f50002700320057
:1042100004003c0004092000848f50003b003a0059
:1042200028003700020c2000828f50002f0032003f
:10423000020f2000828f500034003a002b0037001c
:104240009380e9000200e000050032008109780057
:104250001102fb00cfa2de00612bb900280037005d
:1042600081097800114278000482fb008002eb0093
:104270006033b8002200370013027800e4005200d7
:104280000200e00005003200810978001102be0042
:104290004fabde00860378001900370081097800f3
:1042a0001102be006033b800150037009380e900aa
:1042b0008109780011027800cfa2de00612bb900dd
:1042c0000f00370093027800e880520081097800df
:1042d0003102be002103be00090037009380e900cf
:1042e0000200e00002003200f1ff37009380e90095
:1042f00081097800110278008002eb006033b80079
:104300000498be000690be001000050000000500e5
:1043100044082000848f50002500320008003c0033
:1043200014082000848f500014003200240820005c
:10433000848f500024003200040820000c00370055
:1043400004092000848f50001f00320004003c004c
:1043500084082000848f500024003a000e003700ab
:10436000040a2000848f500011003200040c200049
:10437000848f50001d003a000d0037009380e90043
:10438000810978009100780001087800cf91de0063
:104390008288be00140037009380e900810978000c
:1043a0009100780001087800824878000e003700fc
:1043b0009380e90081097800910078000108780075
:1043c00082087800080037009380e90081097800ae
:1043d00091007800010878006112b900612bb900e2
:1043e0008498be008690be00100005000000050005
:1043f000889fbe0000047800480090008204780086
:10440000808f540001003600800478000901780094
:1044100058009000fd01070058009000090040007e
:1044200050049800c8009000898450004904980006
:104430000048eb004f04be0000000600f287470072
:10444000889fbe008a9fbe008c9fbe008e1f780092
:104450008004780001057800020478008305780064
:104460006107620002003a008b0f54000800390017
:10447000080178008a00780009007800dcff070056
:104480008b0f540002003900880578001e003700a9
:10449000088655000c017800f00f56000100360028
:1044a00002012000010220007e805700a1f40700d5
:1044b0008c0678000500370002012000fe805700be
:1044c00009007800caff0700f0865600ef8f5600fb
:1044d000f9ff3e004461de0000ff2f000091b900ab
:1044e00002014600fe80570009007800c0ff070067
:1044f0000e00e00004003a00080178008a0078000d
:1045000009007800baff07000b0078004f07780019
:104510004f06be004f05be004f04be002f01b10084
:104520000000060000000500000005000000050076
:10453000000178000040eb008080fb00818040009b
:10454000230e210063c278000404e00003003a0057
:10455000300e210060c07800000006009201780053
:10456000934f520004003a00300e210060c07800e2
:104570000309e800010037000040e800ea4f50005e
:10458000edff360000000600f6874700889fbe005a
:104590008a9fbe008c9fbe008e1f780000057800a9
:1045a0000104780083057800040678000000eb0021
:1045b000c0b79f008080eb00d1b79f00e0b79f009d
:1045c000f2b79f000008200080bf9f00980078008d
:1045d000010078008004eb00010037008904e80046
:1045e000304178000204e0000300320053c2b300ff
:1045f000834f5100f9ff3a000900e0000400320047
:10460000090178000a00780079ff0700188c44003f
:104610001807780050c2b3009e4f10003f013a00c7
:104620000e07e8000e0c780010003700cfb097009e
:104630000100a0000b003700cfb097000110a000d0
:1046400008003700cfb097000120a0000500370018
:10465000cfb097000130a00002003700cfb0970024
:104660000140a000c1b79f00000ce80018007800ce
:1046700090407800b2c2b30082cf5000f1ff320008
:1046800007003c0002c2b30082cf5000f0ff3200ae
:1046900032c2b30082cf500007003a00efff37006c
:1046a000d2c2b30082cf5000e0ff320002c3b30099
:1046b00082cf5000e0ff3200a2c2b30082cf500090
:1046c0000d003a00000ce8001c80e900000e7800a4
:1046d00010007800e0b79f000000e0000f003d00f0
:1046e000cfb097000100a200c1b79f000000ea0010
:1046f000e0b79f000900370078f30700e0b79f009c
:1047000001003700000ce800180078009000fb0062
:104710000103b100e98f5000faff36004fb0970057
:104720000008a300020032000010a100c0b79f00e3
:1047300018007800e1c2b30090cf100016003a00d4
:104740008000eb00d1b79f000000e800000c78006b
:10475000a1c2b30090cf100006003a00000ce800a0
:104760001c80e900000e780010007800d0b79f0090
:104770000900370059f30700d0b79f000100370048
:10478000000ce800180078009000fb000103b10065
:10479000e98f5000faff36000800780064ff070038
:1047a00080467800180078001000fb0036010700f2
:1047b00091062000810f50003800320012003c00aa
:1047c00041062000810f5000340032000a003c00f6
:1047d00011062000810f5000200032003106200019
:1047e000810f5000a000320051022000810f5000c4
:1047f000bc003a00b400370071062000810f500061
:10480000b8003c008800370001072000810f5000ed
:104810005c00320007003c00e1062000810f5000e0
:104820007a003200f1062000810f5000ad003a00fe
:104830003900370051072000810f50002700320057
:1048400081072000810f5000420032003107200014
:10485000810f5000a3003a008f0037008d80fb00cd
:104860000c01780000fe2f000f00400035fe07000d
:104870000000e000a800320018007800000ce800fa
:104880009041780002fe2f000f014100f880570090
:104890000a007800040107000e0037008d80fb003d
:1048a0008c0178001200200000fe2f000f00400055
:1048b00043fe07000000e00097003200180ce800fb
:1048c00002fe2f000f014100f88057000a00780017
:1048d0009703070080844400900037008d80fb0020
:1048e0008c0178000001eb0000fe2f000f0040005b
:1048f00033fe07000000e00087003200180ce800db
:1049000002fe2f000f014100f88057000a007800d6
:104910006e070700efff37008d80fb008c017800e9
:104920000001eb0000fe2f000f00400024fe0700f6
:104930000000e00078003200180ce80002fe2f00b2
:104940000f014100f88057000a007800ad0607000b
:10495000e0ff37008d80fb008c0178000001eb0048
:1049600000fe2f000f00400015fe07000000e000d1
:104970006900320018007800000ce80090417800cf
:104980001c0037008c0178000001eb00010f2000b3
:1049900000fe2f000f00400009fe07000000e000ad
:1049a0005d003200180ce8000fb097009fb0970030
:1049b0002fb19700bfb19700e00f5000e08f580073
:1049c000e00f5900e08f590009003a00cfb5970079
:1049d0006fb49700a00d2100930007000b02780030
:1049e0008801780000017800a10d21004700370000
:1049f00083c7b30002fe2f000f014100f88057006b
:104a00000a0078005a070700b2ff37000b81440004
:104a10008d80fb008c01780000fe2f000f0040000d
:104a20003bfe07003c0037008d80fb000c01780046
:104a300000fe2f000f004000c2fd07000000e00054
:104a40003500320018007800000ce8009041780032
:104a500002fe2f000f014100f88057000a00780085
:104a60008d0307009bff370000c8b30080cf5600be
:104a700029003a00180ce8001c80e900000e7800bc
:104a800010407800e0df9f0013002000e2fd2f00bf
:104a90000f0141000800370000c8b30080cf560066
:104aa0001d003a00180ce8001c80e900000e780098
:104ab0008001eb0010017800f88057000a007800b0
:104ac0008506070083ff370000c8b30080cf56007b
:104ad00011003a00180ce8004fb29700efb19700b0
:104ae000080037000e0c78000000eb00c0b79f00f4
:104af000e0b79f000080eb00d0b79f000002eb0002
:104b00008401780012002000010e21000a007800c4
:104b10004afe07006fff3700180ce8000900780014
:104b20004f0778004f06be004f05be004f04be0081
:104b30006f01b100000006008200fa00889fbe00ed
:104b40008a1f78000005780082047800c13f9f002a
:104b50000004eb001000370009027800880178009b
:104b6000a2f72f000f01410081f72f008f80400036
:104b70000a00780084fe070008004000880f5000fb
:104b800004003d00b0042000e08888000084eb00b1
:104b900004003700000478004f3897001004e0004c
:104ba000edff3a00080078004f0578004f04be0082
:104bb0000080fa00000006000200fa00889fbe0094
:104bc00000047800080078008e0707008084eb005e
:104bd0000000e00009003a00981190001200200047
:104be000e68057000800780003000100e10f500044
:104bf00002003a002ff897008084fb00090078003b
:104c00004f04be000080fa0000000600800178001a
:104c100002003700b15978000201e9000200e0000b
:104c2000fcff3a0000000600800078000400370016
:104c30003104e00002003a000000510000000600cc
:104c4000010178000108a300f9ff3a008101780012
:104c500031017800f4ef2f00020242000281ea00e5
:104c6000020162000408280004016100f7ff32001d
:104c700083007800010178003104e000fdff3a0074
:104c80000000510000000600f1fb2f008080400072
:104c9000f98f500001003e000050a0000000060007
:104ca000f9ff3700000006003e00fa00889fbe00b2
:104cb0008a9fbe008c9fbe00100798008346780034
:104cc00011007800400f9800910190004307980070
:104cd00021029000240f9800c1029000050f780077
:104ce000b1009000611f98003204be002205be0092
:104cf000281f9800391f98004a1f98005b1f9800d2
:104d00006022b8006033b8000800be000a01be008f
:104d10009b0707000000e00009003d000800be00fe
:104d20000a01be0003f0a200201f9800311f980066
:104d3000421f9800531f9800d0c2b30004003700f0
:104d4000ce0890000128a30009003200b0c2b300d1
:104d50006e19900000497800ae0990008301e900c7
:104d6000330f980014002000540f980010003700f3
:104d7000ce0a90000538a3000900320000c2b3003b
:104d80006e1b9000004b7800ae0b90008703e9008b
:104d9000370f980018002000580f980004003700c3
:104da000ae0c9000390f98000005eb005a0f9800e8
:104db0002e189000be1890004e199000de19900039
:104dc000b8ff0700f4ff2f00f5ff2f00f6ff2f00bc
:104dd000f7ff27000402600085826000060361007f
:104de000878361006000b8000200200003ff2700f5
:104df0000020e10001a8e10002b0e10003b8e100f9
:104e00000c003a008d06fb001d04b100ee1d900061
:104e1000de08900001804500810f2100f98f5600c7
:104e200001003600c10f21001b070700c00f210041
:104e30002f0237000020e10001a8e10002b0e100ec
:104e400003b8e1000c0036008d06fb001d04b10024
:104e50006e199000de09900003004100011021004e
:104e6000f98f560001003600411021000a070700a3
:104e7000401021001e02370000c3b3006e1a9000dc
:104e8000de0a900000f27a000500e800000142000e
:104e90008d00fb00f6fb2f000683400026079800dc
:104ea00081c7b300f90f530001003e0081c5b30074
:104eb000014978000000e800500f98006022b80017
:104ec0006033b8002e189000be1890004e19900064
:104ed000de1990002a0707000000e0005e003200a3
:104ee0008003eb006044b8000a0020000bff2300a1
:104ef00068079800790798000a0f98001b0f980020
:104f000007067800050037000c06e8006e0c9000dc
:104f1000fe0c90000e1590009e1590000802be0039
:104f20000a03be000800be000a01be00bf0707005a
:104f30000002be000203be00640f9800750f9800c7
:104f400006179800171798002e189000be189000aa
:104f50004e199000de199000090707000000e000dc
:104f6000e9ff3d006c0f98002a0037006022b8006e
:104f70000600200007fe23000800be000a01be0054
:104f8000a40807006022b8006033b800fc060700e0
:104f90000000e00016003a006022b8000600200081
:104fa000073524000800be000a01be00990807006a
:104fb0000004be000205be006022b800060020000a
:104fc000073524002e189000be1890004e1990004e
:104fd000de1990008f0807000002be000203be0029
:104fe000241f9800351f9800461f9800571f9800ef
:104ff0006022b8000600200007fe23000800be0063
:105000000a01be00830807000004be000205be00be
:105010000c06e9000802be000a03be002e1890002c
:10502000be1890004e199000de199000d4060700bb
:105030000000e000cdff35000800be000a01be0000
:105040006007980071079800020f9800130f9800ee
:105050006c0f9800090037008000eb00610f98008a
:105060006022b8000600200007ff230064079800b4
:1050700075079800060f9800170f9800ce02900051
:10508000800120000500e000010035004e00900086
:105090000000e800300798006e049000fe049000c5
:1050a0000e0d90009e0d90006817980079179800db
:1050b0000a1f98001b1f98002e1c9000be1c900019
:1050c0004e1d9000de1d90000006eb003a003700f8
:1050d0006e129000fe1290000e1b90009e1b90001e
:1050e0000800be000a01be009b070700910c0700e4
:1050f0000002be000203be00241798003517980076
:105100004617980057179800da06070080027800c3
:10511000550798006e129000fe1290000e1b900032
:105120009e1b90002e109000be1090004e1190001b
:10513000de119000370807000002be000203be0027
:105140000800be000a01be00320707000004be00ce
:105150000205be006022b8000600200007fb230005
:105160006e109000fe1090000e1990009e19900095
:10517000280807000002be000203be006417980062
:1051800075179800061f9800171f98000c06e80076
:10519000ce0290000500e00007003d006022b8004c
:1051a0006033b8000800be000a01be0074060700a4
:1051b0000000e000040032003e039000860f56001d
:1051c000c3ff3500010037003c0798006022b8009b
:1051d00006002000070224006e109000fe109000d0
:1051e0000e1990009e1990000a0807000002be00e8
:1051f0000203be006417980075179800061f9800f8
:10520000171f98000800be000a01be005c060700d8
:105210000000e0000d0035006e129000fe129000bc
:105220000e1b90009e1b90000800be000a01be00ed
:10523000530607000000e00011003a00de02900073
:105240000508a300080032000d0037006044b800d4
:105250006055b80068179800791798000a1f9800e1
:105260001b1f9800060037006000b8006011b800ee
:105270006017980071179800021f9800131f98007c
:105280006e129000fe1290000e1b90009e1b90006c
:105290002e189000be1890004e199000de19900054
:1052a000e20607000002be000203be006417980079
:1052b00075179800061f9800171f980079fe0700c1
:1052c0000203be000002be00f0ff2f00f1ff2f001e
:1052d000f2ff2f00f3ff27000004620081846200c8
:1052e0000205630083856300281f9800391f98001a
:1052f0004a1f98005b1f98006000b8000200200061
:1053000003ff27000040e10001c8e10002d0e100f6
:1053100003d8e100bbfe3200be0c90008984e90096
:10532000291f98005e0e90008006eb005d07980034
:105330002d1798006f0037006e029000fe0290005b
:105340000e0b90009e0b90006e109000fe109000cf
:105350000e1990009e199000ff060700f50b07003c
:105360000004be000205be0042060700800078006f
:105370000100e00006003a002e1090000000e0005e
:10538000030032008d06e8003d0f9800330037001f
:105390005e0190000200e0000c003a00ae119000a7
:1053a0000300e00009003200e0c2b3006e1a900072
:1053b00000727e000c06e800ae1a90008502e9003b
:1053c000251f98001600200056079800ee1b90003d
:1053d0000c8143000d0078000702780003003700bd
:1053e00003c3b300035978000000e9000000e000a7
:1053f000fbff3a00300f9800641f98000d0646002e
:10540000e98f500003003c00000320000100400031
:10541000020037007005200001004000ae0090003f
:10542000f98f500006003e00800078000150a00077
:105430001106b100f98f500001003e009d050700e4
:105440006e19900000717e000c06e8008d86ea005f
:10545000ae1990008d814100231f98006e029000cc
:10546000fe0290000e0b90009e0b90000800be0004
:105470000a01be00670707000002be000203be006b
:105480006e109000fe1090000e1990009e19900072
:10549000600607000002be000203be006417980009
:1054a00075179800061f9800171f98006022b80013
:1054b0000600200007fb23006e009000fe00900015
:1054c0000e0990009e099000520707000004be00dc
:1054d0000205be0068079800790798000a0f980037
:1054e0001b0f9800ae1490008904e900291798005a
:1054f000be0e90002e1590000a00ea00be05900036
:105500008b0f500004003d009e0078006580500025
:10551000800f560088ff39005e0190000200e00015
:105520001e003a000d00e0007d003400ce01900026
:105530000300e0007a0034004e0a90000408a30043
:1055400077003a00ee1a90008c804200e0c2b3006f
:10555000804878000d0078008501780002c3b30010
:10556000826878000000e900fcff3a00631f9800a1
:105570000c8646000c06e8002e1b90000600e90091
:105580000d005000201f980004003700e0c2b30057
:10559000ee1b900080737e000c06e8006e1c9000ed
:1055a0000c0044000048eb009e0478008900e900ec
:1055b0000041eb0002f478008001eb006e0d9000da
:1055c0000a00e00003003d000a05ea006a0f9800a7
:1055d00013002000120020006e0a90008103780062
:1055e0002e1b90006e1c900080067800090037008a
:1055f00081037800a5002000110009000502d800f1
:105600000002be000543b00005f47b000201e90082
:105610000603e9008700e9000400e000f4ff3a0017
:10562000e10f5100f2ff3200261f9800681f98001a
:105630000d00780001024400b2c2b3000300e00094
:1056400001003200d2c2b300024a78000101e90031
:10565000ee1990008280410003c7b3002e02900033
:10566000f90f520001003e0003c5b30083487800e3
:10567000820f560001003d0007050700ce0a90008a
:1056800063806200e20f500018003a002e1b900069
:105690000684e9004240a900140034006e1890000e
:1056a00061fd0700800044008100e800ee1b9000cf
:1056b000818043008701780002003700e3607800b2
